{
  "contractName": "MultiSigWalet",
  "abi": [
    {
      "inputs": [
        {
          "internalType": "address[]",
          "name": "_owners",
          "type": "address[]"
        },
        {
          "internalType": "uint256",
          "name": "_required",
          "type": "uint256"
        }
      ],
      "stateMutability": "nonpayable",
      "type": "constructor"
    },
    {
      "anonymous": false,
      "inputs": [
        {
          "indexed": true,
          "internalType": "address",
          "name": "owner",
          "type": "address"
        },
        {
          "indexed": true,
          "internalType": "uint256",
          "name": "txId",
          "type": "uint256"
        }
      ],
      "name": "Approve",
      "type": "event"
    },
    {
      "anonymous": false,
      "inputs": [
        {
          "indexed": true,
          "internalType": "address",
          "name": "sender",
          "type": "address"
        },
        {
          "indexed": false,
          "internalType": "uint256",
          "name": "amount",
          "type": "uint256"
        }
      ],
      "name": "Deposit",
      "type": "event"
    },
    {
      "anonymous": false,
      "inputs": [
        {
          "indexed": true,
          "internalType": "uint256",
          "name": "txId",
          "type": "uint256"
        }
      ],
      "name": "Execute",
      "type": "event"
    },
    {
      "anonymous": false,
      "inputs": [
        {
          "indexed": true,
          "internalType": "address",
          "name": "owner",
          "type": "address"
        },
        {
          "indexed": true,
          "internalType": "uint256",
          "name": "txId",
          "type": "uint256"
        }
      ],
      "name": "Revoke",
      "type": "event"
    },
    {
      "anonymous": false,
      "inputs": [
        {
          "indexed": true,
          "internalType": "uint256",
          "name": "txId",
          "type": "uint256"
        }
      ],
      "name": "Submit",
      "type": "event"
    },
    {
      "inputs": [
        {
          "internalType": "uint256",
          "name": "",
          "type": "uint256"
        },
        {
          "internalType": "address",
          "name": "",
          "type": "address"
        }
      ],
      "name": "approved",
      "outputs": [
        {
          "internalType": "bool",
          "name": "",
          "type": "bool"
        }
      ],
      "stateMutability": "view",
      "type": "function"
    },
    {
      "inputs": [
        {
          "internalType": "address",
          "name": "",
          "type": "address"
        }
      ],
      "name": "isOwner",
      "outputs": [
        {
          "internalType": "bool",
          "name": "",
          "type": "bool"
        }
      ],
      "stateMutability": "view",
      "type": "function"
    },
    {
      "inputs": [
        {
          "internalType": "uint256",
          "name": "",
          "type": "uint256"
        }
      ],
      "name": "owners",
      "outputs": [
        {
          "internalType": "address",
          "name": "",
          "type": "address"
        }
      ],
      "stateMutability": "view",
      "type": "function"
    },
    {
      "inputs": [],
      "name": "required",
      "outputs": [
        {
          "internalType": "uint256",
          "name": "",
          "type": "uint256"
        }
      ],
      "stateMutability": "view",
      "type": "function"
    },
    {
      "inputs": [
        {
          "internalType": "uint256",
          "name": "",
          "type": "uint256"
        }
      ],
      "name": "transactions",
      "outputs": [
        {
          "internalType": "address",
          "name": "to",
          "type": "address"
        },
        {
          "internalType": "uint256",
          "name": "value",
          "type": "uint256"
        },
        {
          "internalType": "bytes",
          "name": "data",
          "type": "bytes"
        },
        {
          "internalType": "bool",
          "name": "executed",
          "type": "bool"
        }
      ],
      "stateMutability": "view",
      "type": "function"
    },
    {
      "stateMutability": "payable",
      "type": "receive"
    },
    {
      "inputs": [
        {
          "internalType": "address",
          "name": "_to",
          "type": "address"
        },
        {
          "internalType": "uint256",
          "name": "_value",
          "type": "uint256"
        },
        {
          "internalType": "bytes",
          "name": "_data",
          "type": "bytes"
        }
      ],
      "name": "submit",
      "outputs": [],
      "stateMutability": "nonpayable",
      "type": "function"
    },
    {
      "inputs": [
        {
          "internalType": "uint256",
          "name": "_txId",
          "type": "uint256"
        }
      ],
      "name": "approve",
      "outputs": [],
      "stateMutability": "nonpayable",
      "type": "function"
    },
    {
      "inputs": [
        {
          "internalType": "uint256",
          "name": "_txId",
          "type": "uint256"
        }
      ],
      "name": "execute",
      "outputs": [],
      "stateMutability": "nonpayable",
      "type": "function"
    },
    {
      "inputs": [
        {
          "internalType": "uint256",
          "name": "_txId",
          "type": "uint256"
        }
      ],
      "name": "revoke",
      "outputs": [],
      "stateMutability": "nonpayable",
      "type": "function"
    }
  ],
  "bytecode": "0x60806040523480156200001157600080fd5b506040516200201e3803806200201e83398181016040528101906200003791906200050e565b60008251116200007e576040517f08c379a00000000000000000000000000000000000000000000000000000000081526004016200007590620005d5565b60405180910390fd5b60008111801562000090575081518111155b620000d2576040517f08c379a0000000000000000000000000000000000000000000000000000000008152600401620000c9906200066d565b60405180910390fd5b60005b8251811015620002d5576000838281518110620000f757620000f66200068f565b5b60200260200101519050600073ffffffffffffffffffffffffffffffffffffffff168173ffffffffffffffffffffffffffffffffffffffff16141562000174576040517f08c379a00000000000000000000000000000000000000000000000000000000081526004016200016b906200070e565b60405180910390fd5b600160008273ffffffffffffffffffffffffffffffffffffffff1673ffffffffffffffffffffffffffffffffffffffff16815260200190815260200160002060009054906101000a900460ff161562000204576040517f08c379a0000000000000000000000000000000000000000000000000000000008152600401620001fb9062000780565b60405180910390fd5b60018060008373ffffffffffffffffffffffffffffffffffffffff1673ffffffffffffffffffffffffffffffffffffffff16815260200190815260200160002060006101000a81548160ff0219169083151502179055506000819080600181540180825580915050600190039060005260206000200160009091909190916101000a81548173ffffffffffffffffffffffffffffffffffffffff021916908373ffffffffffffffffffffffffffffffffffffffff160217905550508080620002cc90620007d1565b915050620000d5565b508060028190555050506200081f565b6000604051905090565b600080fd5b600080fd5b600080fd5b6000601f19601f8301169050919050565b7f4e487b7100000000000000000000000000000000000000000000000000000000600052604160045260246000fd5b6200034982620002fe565b810181811067ffffffffffffffff821117156200036b576200036a6200030f565b5b80604052505050565b600062000380620002e5565b90506200038e82826200033e565b919050565b600067ffffffffffffffff821115620003b157620003b06200030f565b5b602082029050602081019050919050565b600080fd5b600073ffffffffffffffffffffffffffffffffffffffff82169050919050565b6000620003f482620003c7565b9050919050565b6200040681620003e7565b81146200041257600080fd5b50565b6000815190506200042681620003fb565b92915050565b6000620004436200043d8462000393565b62000374565b90508083825260208201905060208402830185811115620004695762000468620003c2565b5b835b8181101562000496578062000481888262000415565b8452602084019350506020810190506200046b565b5050509392505050565b600082601f830112620004b857620004b7620002f9565b5b8151620004ca8482602086016200042c565b91505092915050565b6000819050919050565b620004e881620004d3565b8114620004f457600080fd5b50565b6000815190506200050881620004dd565b92915050565b60008060408385031215620005285762000527620002ef565b5b600083015167ffffffffffffffff811115620005495762000548620002f4565b5b6200055785828601620004a0565b92505060206200056a85828601620004f7565b9150509250929050565b600082825260208201905092915050565b7f6f776e6572732072657175697265640000000000000000000000000000000000600082015250565b6000620005bd600f8362000574565b9150620005ca8262000585565b602082019050919050565b60006020820190508181036000830152620005f081620005ae565b9050919050565b7f496e76616c6964207265717569726564206e756d626572206f66206f776e657260008201527f7300000000000000000000000000000000000000000000000000000000000000602082015250565b60006200065560218362000574565b91506200066282620005f7565b604082019050919050565b60006020820190508181036000830152620006888162000646565b9050919050565b7f4e487b7100000000000000000000000000000000000000000000000000000000600052603260045260246000fd5b7f496e76616c6964206f776e657200000000000000000000000000000000000000600082015250565b6000620006f6600d8362000574565b91506200070382620006be565b602082019050919050565b600060208201905081810360008301526200072981620006e7565b9050919050565b7f6f776e6572206973206e6f7420756e6971756500000000000000000000000000600082015250565b60006200076860138362000574565b9150620007758262000730565b602082019050919050565b600060208201905081810360008301526200079b8162000759565b9050919050565b7f4e487b7100000000000000000000000000000000000000000000000000000000600052601160045260246000fd5b6000620007de82620004d3565b91507fffffffffffffffffffffffffffffffffffffffffffffffffffffffffffffffff821415620008145762000813620007a2565b5b600182019050919050565b6117ef806200082f6000396000f3fe60806040526004361061008a5760003560e01c80638253951a116100595780638253951a146101b05780639ace38c2146101ed578063b759f9541461022d578063dc8452cd14610256578063fe0d94c114610281576100df565b8063025e7c27146100e457806314de327f1461012157806320c5429b1461014a5780632f54bf6e14610173576100df565b366100df573373ffffffffffffffffffffffffffffffffffffffff167fe1fffcc4923d04b559f4d29a8bfc6cda04eb5b0d3c460751c2402c5c5cc9109c346040516100d59190610f5b565b60405180910390a2005b600080fd5b3480156100f057600080fd5b5061010b60048036038101906101069190610fac565b6102aa565b604051610118919061101a565b60405180910390f35b34801561012d57600080fd5b50610148600480360381019061014391906110c6565b6102e9565b005b34801561015657600080fd5b50610171600480360381019061016c9190610fac565b6104f2565b005b34801561017f57600080fd5b5061019a6004803603810190610195919061113a565b610789565b6040516101a79190611182565b60405180910390f35b3480156101bc57600080fd5b506101d760048036038101906101d2919061119d565b6107a9565b6040516101e49190611182565b60405180910390f35b3480156101f957600080fd5b50610214600480360381019061020f9190610fac565b6107d8565b6040516102249493929190611276565b60405180910390f35b34801561023957600080fd5b50610254600480360381019061024f9190610fac565b6108cd565b005b34801561026257600080fd5b5061026b610b67565b6040516102789190610f5b565b60405180910390f35b34801561028d57600080fd5b506102a860048036038101906102a39190610fac565b610b6d565b005b600081815481106102ba57600080fd5b906000526020600020016000915054906101000a900473ffffffffffffffffffffffffffffffffffffffff1681565b600160003373ffffffffffffffffffffffffffffffffffffffff1673ffffffffffffffffffffffffffffffffffffffff16815260200190815260200160002060009054906101000a900460ff16610375576040517f08c379a000000000000000000000000000000000000000000000000000000000815260040161036c9061131f565b60405180910390fd5b600360405180608001604052808673ffffffffffffffffffffffffffffffffffffffff16815260200185815260200184848080601f016020809104026020016040519081016040528093929190818152602001838380828437600081840152601f19601f82011690508083019250505050505050815260200160001515815250908060018154018082558091505060019003906000526020600020906004020160009091909190915060008201518160000160006101000a81548173ffffffffffffffffffffffffffffffffffffffff021916908373ffffffffffffffffffffffffffffffffffffffff16021790555060208201518160010155604082015181600201908051906020019061048b929190610e9f565b5060608201518160030160006101000a81548160ff021916908315150217905550505060016003805490506104c0919061136e565b7f08324b3d745b914e3abd4ffbfead91e3b78391a98c173202129215ab933adfbe60405160405180910390a250505050565b600160003373ffffffffffffffffffffffffffffffffffffffff1673ffffffffffffffffffffffffffffffffffffffff16815260200190815260200160002060009054906101000a900460ff1661057e576040517f08c379a00000000000000000000000000000000000000000000000000000000081526004016105759061131f565b60405180910390fd5b8060038054905081106105c6576040517f08c379a00000000000000000000000000000000000000000000000000000000081526004016105bd906113ee565b60405180910390fd5b81600381815481106105db576105da61140e565b5b906000526020600020906004020160030160009054906101000a900460ff161561063a576040517f08c379a000000000000000000000000000000000000000000000000000000000815260040161063190611489565b60405180910390fd5b6004600084815260200190815260200160002060003373ffffffffffffffffffffffffffffffffffffffff1673ffffffffffffffffffffffffffffffffffffffff16815260200190815260200160002060009054906101000a900460ff166106d7576040517f08c379a00000000000000000000000000000000000000000000000000000000081526004016106ce906114f5565b60405180910390fd5b60006004600085815260200190815260200160002060003373ffffffffffffffffffffffffffffffffffffffff1673ffffffffffffffffffffffffffffffffffffffff16815260200190815260200160002060006101000a81548160ff021916908315150217905550823373ffffffffffffffffffffffffffffffffffffffff167fec9ab91322523c899ede7830ec9bfc992b5981cdcc27b91162fb23de5791117b60405160405180910390a3505050565b60016020528060005260406000206000915054906101000a900460ff1681565b60046020528160005260406000206020528060005260406000206000915091509054906101000a900460ff1681565b600381815481106107e857600080fd5b90600052602060002090600402016000915090508060000160009054906101000a900473ffffffffffffffffffffffffffffffffffffffff169080600101549080600201805461083790611544565b80601f016020809104026020016040519081016040528092919081815260200182805461086390611544565b80156108b05780601f10610885576101008083540402835291602001916108b0565b820191906000526020600020905b81548152906001019060200180831161089357829003601f168201915b5050505050908060030160009054906101000a900460ff16905084565b600160003373ffffffffffffffffffffffffffffffffffffffff1673ffffffffffffffffffffffffffffffffffffffff16815260200190815260200160002060009054906101000a900460ff16610959576040517f08c379a00000000000000000000000000000000000000000000000000000000081526004016109509061131f565b60405180910390fd5b8060038054905081106109a1576040517f08c379a0000000000000000000000000000000000000000000000000000000008152600401610998906113ee565b60405180910390fd5b816004600082815260200190815260200160002060003373ffffffffffffffffffffffffffffffffffffffff1673ffffffffffffffffffffffffffffffffffffffff16815260200190815260200160002060009054906101000a900460ff1615610a40576040517f08c379a0000000000000000000000000000000000000000000000000000000008152600401610a37906115c2565b60405180910390fd5b8260038181548110610a5557610a5461140e565b5b906000526020600020906004020160030160009054906101000a900460ff1615610ab4576040517f08c379a0000000000000000000000000000000000000000000000000000000008152600401610aab90611489565b60405180910390fd5b60016004600086815260200190815260200160002060003373ffffffffffffffffffffffffffffffffffffffff1673ffffffffffffffffffffffffffffffffffffffff16815260200190815260200160002060006101000a81548160ff021916908315150217905550833373ffffffffffffffffffffffffffffffffffffffff167f90ec57f18fa7b15c6b8d5e4d1deb90796c74b2ff23d4d0cecad0cb42a96b312860405160405180910390a350505050565b60025481565b806003805490508110610bb5576040517f08c379a0000000000000000000000000000000000000000000000000000000008152600401610bac906113ee565b60405180910390fd5b8160038181548110610bca57610bc961140e565b5b906000526020600020906004020160030160009054906101000a900460ff1615610c29576040517f08c379a0000000000000000000000000000000000000000000000000000000008152600401610c2090611489565b60405180910390fd5b600254610c3584610dc6565b1015610c76576040517f08c379a0000000000000000000000000000000000000000000000000000000008152600401610c6d9061162e565b60405180910390fd5b600060038481548110610c8c57610c8b61140e565b5b9060005260206000209060040201905060018160030160006101000a81548160ff02191690831515021790555060008160000160009054906101000a900473ffffffffffffffffffffffffffffffffffffffff1673ffffffffffffffffffffffffffffffffffffffff16826001015483600201604051610d0c91906116ed565b60006040518083038185875af1925050503d8060008114610d49576040519150601f19603f3d011682016040523d82523d6000602084013e610d4e565b606091505b5050905080610d92576040517f08c379a0000000000000000000000000000000000000000000000000000000008152600401610d8990611750565b60405180910390fd5b847fddb556f1d2c1ec821e910b019d3685b229db152a0ecd517ca7e24b8bd713928960405160405180910390a25050505050565b6000805b600080549050811015610e9957600460008481526020019081526020016000206000808381548110610dff57610dfe61140e565b5b9060005260206000200160009054906101000a900473ffffffffffffffffffffffffffffffffffffffff1673ffffffffffffffffffffffffffffffffffffffff1673ffffffffffffffffffffffffffffffffffffffff16815260200190815260200160002060009054906101000a900460ff1615610e86578180610e8290611770565b9250505b8080610e9190611770565b915050610dca565b50919050565b828054610eab90611544565b90600052602060002090601f016020900481019282610ecd5760008555610f14565b82601f10610ee657805160ff1916838001178555610f14565b82800160010185558215610f14579182015b82811115610f13578251825591602001919060010190610ef8565b5b509050610f219190610f25565b5090565b5b80821115610f3e576000816000905550600101610f26565b5090565b6000819050919050565b610f5581610f42565b82525050565b6000602082019050610f706000830184610f4c565b92915050565b600080fd5b600080fd5b610f8981610f42565b8114610f9457600080fd5b50565b600081359050610fa681610f80565b92915050565b600060208284031215610fc257610fc1610f76565b5b6000610fd084828501610f97565b91505092915050565b600073ffffffffffffffffffffffffffffffffffffffff82169050919050565b600061100482610fd9565b9050919050565b61101481610ff9565b82525050565b600060208201905061102f600083018461100b565b92915050565b61103e81610ff9565b811461104957600080fd5b50565b60008135905061105b81611035565b92915050565b600080fd5b600080fd5b600080fd5b60008083601f84011261108657611085611061565b5b8235905067ffffffffffffffff8111156110a3576110a2611066565b5b6020830191508360018202830111156110bf576110be61106b565b5b9250929050565b600080600080606085870312156110e0576110df610f76565b5b60006110ee8782880161104c565b94505060206110ff87828801610f97565b935050604085013567ffffffffffffffff8111156111205761111f610f7b565b5b61112c87828801611070565b925092505092959194509250565b6000602082840312156111505761114f610f76565b5b600061115e8482850161104c565b91505092915050565b60008115159050919050565b61117c81611167565b82525050565b60006020820190506111976000830184611173565b92915050565b600080604083850312156111b4576111b3610f76565b5b60006111c285828601610f97565b92505060206111d38582860161104c565b9150509250929050565b600081519050919050565b600082825260208201905092915050565b60005b838110156112175780820151818401526020810190506111fc565b83811115611226576000848401525b50505050565b6000601f19601f8301169050919050565b6000611248826111dd565b61125281856111e8565b93506112628185602086016111f9565b61126b8161122c565b840191505092915050565b600060808201905061128b600083018761100b565b6112986020830186610f4c565b81810360408301526112aa818561123d565b90506112b96060830184611173565b95945050505050565b600082825260208201905092915050565b7f6e6f74206f776e65720000000000000000000000000000000000000000000000600082015250565b60006113096009836112c2565b9150611314826112d3565b602082019050919050565b60006020820190508181036000830152611338816112fc565b9050919050565b7f4e487b7100000000000000000000000000000000000000000000000000000000600052601160045260246000fd5b600061137982610f42565b915061138483610f42565b9250828210156113975761139661133f565b5b828203905092915050565b7f747820646f6573206e6f74206578697374000000000000000000000000000000600082015250565b60006113d86011836112c2565b91506113e3826113a2565b602082019050919050565b60006020820190508181036000830152611407816113cb565b9050919050565b7f4e487b7100000000000000000000000000000000000000000000000000000000600052603260045260246000fd5b7f747820616c726561647920657865637574656400000000000000000000000000600082015250565b60006114736013836112c2565b915061147e8261143d565b602082019050919050565b600060208201905081810360008301526114a281611466565b9050919050565b7f7478206e6f7420617070726f7665000000000000000000000000000000000000600082015250565b60006114df600e836112c2565b91506114ea826114a9565b602082019050919050565b6000602082019050818103600083015261150e816114d2565b9050919050565b7f4e487b7100000000000000000000000000000000000000000000000000000000600052602260045260246000fd5b6000600282049050600182168061155c57607f821691505b602082108114156115705761156f611515565b5b50919050565b7f747820616c726561647920617070726f76656400000000000000000000000000600082015250565b60006115ac6013836112c2565b91506115b782611576565b602082019050919050565b600060208201905081810360008301526115db8161159f565b9050919050565b7f617070726f76616c73206c657373207468616e20726571756972656400000000600082015250565b6000611618601c836112c2565b9150611623826115e2565b602082019050919050565b600060208201905081810360008301526116478161160b565b9050919050565b600081905092915050565b60008190508160005260206000209050919050565b6000815461167b81611544565b611685818661164e565b945060018216600081146116a057600181146116b1576116e4565b60ff198316865281860193506116e4565b6116ba85611659565b60005b838110156116dc578154818901526001820191506020810190506116bd565b838801955050505b50505092915050565b60006116f9828461166e565b915081905092915050565b7f7478206661696c65640000000000000000000000000000000000000000000000600082015250565b600061173a6009836112c2565b915061174582611704565b602082019050919050565b600060208201905081810360008301526117698161172d565b9050919050565b600061177b82610f42565b91507fffffffffffffffffffffffffffffffffffffffffffffffffffffffffffffffff8214156117ae576117ad61133f565b5b60018201905091905056fea264697066735822122014b66d6766a6842b15c22c0e78841ae42f867fbdf853ba815016a5d7289dae0264736f6c634300080a0033",
  "immutableReferences": {},
  "source": "// SPDX-License-Identifier: Unlicensed\r\n\r\npragma solidity ^0.8.10;\r\n\r\ncontract MultiSigWalet {\r\n    event Deposit(address indexed sender, uint amount);\r\n    event Submit(uint indexed txId);  // submit tx and waiting other to approve\r\n    event Approve(address indexed owner, uint indexed txId); // approve tx\r\n    event Revoke(address indexed owner, uint indexed txId);  // revoke or reject tx\r\n    event Execute(uint indexed txId); // execute tx after all confirmation complete\r\n\r\n    struct Transaction {\r\n        address to; \r\n        uint value;\r\n        bytes data;  // data to be sent to the address\r\n        bool executed;  // true when tx is excuted\r\n    }\r\n\r\n    address[] public owners;\r\n    mapping(address => bool) public isOwner;  // check that msg.sender is owner\r\n    uint public required;  // number of approvals required before tx can be excuted\r\n\r\n    Transaction[] public transactions;\r\n\r\n    // each tx will can be executed if the number of approval >= required\r\n    // approval of each tx by each owner to show tx is approved by owner or not\r\n    mapping(uint => mapping(address => bool)) public approved;\r\n\r\n    modifier onlyOwner() {\r\n        require(isOwner[msg.sender], \"not owner\");\r\n        _;\r\n    }\r\n\r\n    modifier txExists(uint _txId) {\r\n        require(_txId < transactions.length, \"tx does not exist\");\r\n        _;\r\n    }\r\n\r\n    modifier notApproved(uint _txId) {\r\n        require(!approved[_txId][msg.sender], \"tx already approved\");   // checking with the approved mapping\r\n        _;\r\n    }\r\n\r\n    modifier notExecuted(uint _txId) {\r\n        require(!transactions[_txId].executed, \"tx already executed\");\r\n        _;\r\n    }\r\n\r\n    constructor(address[] memory _owners, uint _required) {\r\n        require(_owners.length > 0, \"owners required\");\r\n        require(\r\n            _required > 0 && _required <= _owners.length,\r\n            \"Invalid required number of owners\"\r\n        );\r\n\r\n        // save the owners to state variable\r\n        for (uint i; i < _owners.length; i++) {\r\n            address owner = _owners[i];\r\n\r\n            require(owner != address(0), \"Invalid owner\");      // owner cannot be 0x00000000...00\r\n            require(!isOwner[owner], \"owner is not unique\");    // check if not exist in owner mapping\r\n\r\n            isOwner[owner] = true;\r\n            owners.push(owner);\r\n        }\r\n\r\n        required = _required;\r\n    }\r\n\r\n    receive() external payable {\r\n        emit Deposit(msg.sender, msg.value);\r\n    }\r\n\r\n    function submit(address _to, uint _value, bytes calldata _data)\r\n        external\r\n        onlyOwner\r\n    {\r\n        transactions.push(Transaction({\r\n            to: _to,\r\n            value: _value,\r\n            data: _data,\r\n            executed: false\r\n        })); \r\n        emit Submit(transactions.length - 1);   // txid is index where tx is strored\r\n    }\r\n\r\n    function approve(uint _txId)\r\n        external\r\n        onlyOwner\r\n        txExists(_txId)\r\n        notApproved(_txId) // check tx is not yet approved by msg.sender\r\n        notExecuted(_txId)\r\n    {\r\n        approved[_txId][msg.sender] = true;\r\n        emit Approve(msg.sender, _txId);\r\n    }\r\n\r\n    function _getApprovalCount(uint _txId) private view returns (uint count) {\r\n        for (uint i; i < owners.length; i++) {\r\n            if (approved[_txId][owners[i]]) {\r\n                count++;\r\n            }\r\n        }\r\n    }\r\n\r\n    function execute(uint _txId) external txExists(_txId) notExecuted(_txId) {\r\n        require(_getApprovalCount(_txId) >= required, \"approvals less than required\");\r\n        Transaction storage transaction = transactions[_txId];\r\n\r\n        transaction.executed = true;\r\n\r\n        // call function: sending a message to contract and return tuple of a boolean and bytes array\r\n        (bool sucess, ) = transaction.to.call{value: transaction.value}(\r\n            transaction.data\r\n        );\r\n        require(sucess, \"tx failed\");\r\n\r\n        emit Execute(_txId);\r\n    }\r\n\r\n    function revoke(uint _txId)\r\n        external\r\n        onlyOwner\r\n        txExists(_txId)\r\n        notExecuted(_txId)\r\n    {\r\n        // must be a first approver of the transaction\r\n        require(approved[_txId][msg.sender], \"tx not approve\");\r\n        approved[_txId][msg.sender] = false;\r\n        emit Revoke(msg.sender, _txId);\r\n    }\r\n}",
  "sourcePath": "/mnt/c/Users/wichita/dev/smart-contract/simple-multisig-wallet/contracts/MultiSigWallet.sol",
  "compiler": {
    "name": "solc",
    "version": "0.8.10+commit.fc410830.Emscripten.clang"
  },
  "schemaVersion": "3.4.6",
  "updatedAt": "2022-04-01T10:09:06.145Z",
  "devdoc": {
    "kind": "dev",
    "methods": {},
    "version": 1
  },
  "userdoc": {
    "kind": "user",
    "methods": {},
    "version": 1
  }
}